:100000000C9433000C94D0040C9450000C945000C9
:100010000C9450000C9450000C9450000C949E06CC
:100020000C9450000C9450000C9450000C94500010
:100030000C9450000C9450000C9450000C94500000
:100040000C9450000C9450000C9450000C945000F0
:100050000C94500043144314721477148D144314F9
:1000600043147214771411241FBECFE5D8E0DEBF0D
:10007000CDBF10E0A0E6B0E0E4EFFDE202C00590E5
:100080000D92A83DB107D9F725E0A8EDB0E001C079
:100090001D92A736B207E1F70E9471040C94F8167E
:1000A0000C94000087B1806487B986B1876886B9EF
:1000B000089597B1892B806487B986B1806486B929
:1000C0003699FECF84B195B10895CF93DF93EC01BB
:1000D0000E944B0D8091D8009091D900892B31F46A
:1000E0008CED90E09093D9008093D8002097C9F0D0
:1000F0008091DA009091DB009E01280F391F2F3F7D
:1001000043E0340788F48217930788F4C091D8003D
:10011000D091D900C80FD91F3093DB002093DA00AB
:1001200008C0C0E0D0E005C0C0E0D0E002C0C0E040
:10013000D0E00E94750ECE01DF91CF910895089511
:100140008FE084BB8FEF85BB0895E0E06EC0E130A7
:1001500099F028F0E230E9F0E33041F133C085B3A3
:100160008E7F85BB85B3826085BB85B3846085BB8C
:1001700085B3886085BB26C085B3816085BB85B3A8
:100180008D7F85BB85B3846085BB85B3886085BB67
:1001900019C085B3816085BB85B3826085BB85B39B
:1001A0008B7F85BB85B3886085BB0CC085B38160C0
:1001B00085BB85B3826085BB85B3846085BB85B311
:1001C000877F85BB9C9909C0F0E0EE0FFF1FEE0F03
:1001D000FF1FEE59FF4F808108959D9909C0F0E0FF
:1001E000EE0FFF1FEE0FFF1FED59FF4F80810895A7
:1001F0009E9909C0F0E0EE0FFF1FEE0FFF1FEC59B4
:10020000FF4F808108959F9909C0F0E0EE0FFF1F16
:10021000EE0FFF1FEB59FF4F808108958FE99FE09C
:100220000197F1F700C00000EF5FE43008F48FCFD2
:100230008FEF08959BB3977F9BBB882324F09BB3DC
:100240009F779BBB03C09BB390689BBB86FD04C09C
:100250009BB39F7B9BBB03C09BB390649BBB85FD03
:1002600004C09BB39F7D9BBB03C09BB390629BBBB1
:1002700084FD04C09BB39F7E9BBB03C09BB3906176
:100280009BBB9BB394609BBBEFE9FFE03197F1F719
:1002900000C000009BB39B7F9BBBEFE9FFE0319761
:1002A000F1F700C0000083FD04C09BB39F779BBBA8
:1002B00003C09BB390689BBB82FD04C09BB39F7B34
:1002C0009BBB03C09BB390649BBB81FD04C09BB3ED
:1002D0009F7D9BBB03C09BB390629BBB80FD04C012
:1002E0008BB38F7E8BBB03C08BB380618BBB8BB317
:1002F00084608BBB8FE99FE00197F1F700C000009D
:100300008BB38B7F8BBBEFE9FFE03197F1F700C038
:10031000000008958AB38C6F8ABB8BB383708BBB4C
:1003200083E00E941A018FE79EE30197F1F700C076
:10033000000083E00E941A018FE79EE30197F1F726
:1003400000C0000083E00E941A018FE79EE301973E
:10035000F1F700C0000082E00E941A0188E20E94CA
:100360001A0188E00E941A0181E00E941A0186E0C9
:100370000E941A0181E00E941A018CE00E941A0179
:100380009FEF29EF80E0915020408040E1F700C0CE
:10039000000008959BB398609BBB882324F09BB317
:1003A0009F779BBB03C09BB390689BBB86FD04C03B
:1003B0009BB39F7B9BBB03C09BB390649BBB85FDA2
:1003C00004C09BB39F7D9BBB03C09BB390629BBB50
:1003D00084FD04C09BB39F7E9BBB03C09BB3906115
:1003E0009BBB9BB394609BBBEFE9FFE03197F1F7B8
:1003F00000C000009BB39B7F9BBBEFE9FFE0319700
:10040000F1F700C0000083FD04C09BB39F779BBB46
:1004100003C09BB390689BBB82FD04C09BB39F7BD2
:100420009BBB03C09BB390649BBB81FD04C09BB38B
:100430009F7D9BBB03C09BB390629BBB80FD04C0B0
:100440008BB38F7E8BBB03C08BB380618BBB8BB3B5
:1004500084608BBB8FE99FE00197F1F700C000003B
:100460008BB38B7F8BBBEFE9FFE03197F1F700C0D7
:10047000000008950F931F93CF938C01C0E003C039
:100480000E94CA01CF5FF801EC0FF11D808181113C
:10049000F7CFCF911F910F910895CF92DF92EF92F6
:1004A000FF921F93CF93DF93CDB7DEB72A970FB696
:1004B000F894DEBF0FBECDBF6B017C01672B682BAC
:1004C000692B19F480E30E94CA0110E017C0C7012C
:1004D000B6012AE030E040E050E00E94C716E1E0BB
:1004E000F0E0EC0FFD1FE10FF11D17FDFA95605DC7
:1004F0006083C22ED32EE42EF52E1F5FC114D104CB
:10050000E104F10421F711500CC0E1E0F0E0EC0F40
:10051000FD1FE10FF11D17FDFA9580810E94CA01B0
:100520001150112394F72A960FB6F894DEBF0FBE30
:10053000CDBFDF91CF911F91FF90EF90DF90CF90D3
:100540000895FC010396928381832FEF3FEF34835C
:100550002383968385839087878310820895FC0187
:10056000118610860895CF93DF939C01FB01DC0177
:100570001196CD91DC911297D383C2838C819D819A
:10058000958384838C819D81DC0113967C936E938B
:1005900012977D836C8331872087F90180818F5F7B
:1005A0008083DF91CF910895CF93DF93EB01488152
:1005B00059814F3F2FEF520721F4FC01A781B085ED
:1005C0000DC0DC01139601C0DF011296ED91FC9184
:1005D00013972081318142175307B0F71296ED919E
:1005E000FC911397FB83EA83D583C483BD83AC83DB
:1005F0001396DC93CE93129799878887FC0120810C
:100600002F5F2083DF91CF910895CF93DF93FC017B
:10061000A085B185C281D381848195819D838C839E
:10062000C481D581828193819B838A8311968D9128
:100630009C911297E817F90731F4848195811296FD
:100640009C938E931197118610868C9181508C9378
:100650008C91DF91CF91089580E00E945900EC01C8
:1006600085569109873C910538F484E60E94C206BC
:1006700084E10E94B2062BC0CE018D5291408B3294
:10068000914038F486E40E94C20688E20E94B206D5
:100690001EC0CE01895592408B32914038F48EE1D4
:1006A0000E94C2068CE30E94B20611C0C53883E0E6
:1006B000D80738F08AE00E94C20680E50E94B206A0
:1006C00006C080E00E94C20680E00E94B20662E39B
:1006D00070E080916305909164050E9480098823F1
:1006E00061F181E00E941A0180E80E941A0182E70C
:1006F00090E00E943A0280EC0E941A0181E890E0AA
:100700000E943A026091600070E080E090E00E94F8
:100710004D0283E890E00E943A02BE0180E090E042
:100720000E944D0220E040E050E060E070E08091E7
:100730006305909164050E945F0881E090E00E944B
:100740004A0F8ACF81E00E945900BC0177276D557E
:100750007109072E000C880B990B0E94AE1520E042
:1007600030E04BE753E40E940B1520E030E048EC0A
:1007700052E40E943A160E947D15C62F862F0E94D1
:10078000C20662E370E080916305909164050E9467
:100790008009882349F181E00E941A0180E80E94C3
:1007A0001A018CE890E00E943A0280EC0E941A0143
:1007B0006091600070E080E090E00E944D028BE963
:1007C00090E00E943A026C2F70E080E090E00E947E
:1007D0004D0220E040E050E060E070E08091630571
:1007E000909164050E945F0881E090E00E944A0FAA
:1007F000A9CFC0E062E370E0809163059091640549
:100800000E9480098823A9F081E00E941A0180E8F3
:100810000E941A0186EA90E00E943A0220E040E03D
:1008200050E060E070E080916305909164050E9463
:100830005F080E94A500C11103C0CF5FD82F4CC034
:10084000C13019F4CF5F182F47C0C23019F4CF5F01
:10085000082F42C0C33009F03FC08D3311F51B3261
:1008600021F4FD2EF00EC0E01CC01D3221F4FD2E3F
:10087000F01AC0E016C01A3229F4D09FF02C1124CF
:10088000C0E00FC01F3249F4002349F08D2F602FC4
:100890000E94A716F82EC0E004C0C0E002C0C0E06D
:1008A000F12C80EC0E941A018D2F90E0C0960E94DE
:1008B0003A02812F90E00E943A02802F90E0C09689
:1008C0000E943A028DE390E00E943A026F2D70E0A0
:1008D00080E090E00E944D0281E090E00E944A0F8B
:1008E00089CFEF92FF920F9343E060E081E00E9496
:1008F0001E08909364058093630520E040E050E07B
:1009000060E070E00E945F080E948A010E9452002D
:1009100084E082BB8BB780648BBF8FB780688FBF4A
:100920000E94AB060E94A1060E94A0000F2EF1E6D5
:10093000EF2EF5E0FF2EF02D01E020E030E040E862
:1009400050E065EB70E08CE293E00E945C0C0F2EAF
:10095000FFE5EF2EF5E0FF2EF02D20E030E040E83F
:1009600050E06CEB70E082EA93E00E945C0C0F2E8A
:10097000F5E6EF2EF5E0FF2EF02D04E020E030E06C
:1009800040E850E063EC70E089EF93E00E945C0C7B
:100990000E941B0D80E090E00F91FF90EF90089572
:1009A0001F920F920FB60F9211242F933F934F93E4
:1009B0005F936F937F938F939F93AF93BF93EF93C7
:1009C000FF93809160008130A9F40E941A01809108
:1009D0005F05909160050E94B40F8091650590912C
:1009E00066050E94B40F80916105909162050E9496
:1009F000B50C2FC08230B1F481E00E941A018091C1
:100A00006105909162050E94B40F809165059091F7
:100A100066050E94B40F80915F05909160050E9469
:100A2000B50C17C08330A9F481E00E941A018091AF
:100A30006105909162050E94B40F80915F059091CD
:100A400060050E94B40F80916505909166050E9433
:100A5000B50C80916000833021F481E080936000C8
:100A600003C08F5F80936000FF91EF91BF91AF91C2
:100A70009F918F917F916F915F914F913F912F91B6
:100A80000F900FBE0F901F9018951BBC89EF8ABD69
:100A90008BE08EBD89B7806189BF089531E1FC018B
:100AA0003083319722E220833197A3E3A0833197EB
:100AB00060833197708331971082319760E860834B
:100AC00031971082319762E06083319763E06083F1
:100AD000319764E06083319765E06083319766E029
:100AE0006083319767E06083319768E06083319776
:100AF00069E06083319760E160833197308331979B
:100B000032E13083319733E13083319734E1308300
:100B1000319735E13083319736E13083319737E1D2
:100B20003083319738E13083319739E13083319721
:100B300030E23083319731E230833197208331972F
:100B400023E220833197408331975083319726E207
:100B50002083319727E22083319728E22083319741
:100B600029E22083319720E32083319721E32083FA
:100B7000869708950E944505A0914105B0914205D0
:100B8000CD91CDBFDD91DEBFFF91EF91DF91CF9190
:100B9000BF91AF919F918F917F916F915F914F9195
:100BA0003F912F911F910F91FF90EF90DF90CF9089
:100BB000BF90AF909F908F907F906F905F904F907D
:100BC0003F902F901F900F900FBE0F90089581E0DF
:100BD00008950F920FB6F8940F921F9211242F923E
:100BE0003F924F925F926F927F928F929F92AF92BD
:100BF000BF92CF92DF92EF92FF920F931F932F93AA
:100C00003F934F935F936F937F938F939F93AF9394
:100C1000BF93CF93DF93EF93FF93A0914105B091E2
:100C200042050DB60D920EB60D920E94600FA09176
:100C30004105B0914205CD91CDBFDD91DEBFFF9161
:100C4000EF91DF91CF91BF91AF919F918F917F9164
:100C50006F915F914F913F912F911F910F91FF9055
:100C6000EF90DF90CF90BF90AF909F908F907F904C
:100C70006F905F904F903F902F901F900F900FBEFE
:100C80000F9008950F920FB6F8940F921F921124AF
:100C90002F923F924F925F926F927F928F929F928C
:100CA000AF92BF92CF92DF92EF92FF920F931F937A
:100CB0002F933F934F935F936F937F938F939F9364
:100CC000AF93BF93CF93DF93EF93FF93A091410531
:100CD000B09142050DB60D920EB60D920E945B0DBD
:100CE00081110E94600FA0914105B0914205CD9104
:100CF000CDBFDD91DEBFFF91EF91DF91CF91BF912D
:100D0000AF919F918F917F916F915F914F913F91A3
:100D10002F911F910F91FF90EF90DF90CF90BF9098
:100D2000AF909F908F907F906F905F904F903F908B
:100D30002F901F900F900FBE0F9008950E944206B3
:100D4000189581B3806281BB8FB583688FBD8EB5E6
:100D500089608EBD089583B7896683BF87B3886035
:100D600087BB0895682F70E080E090E00E94AE1588
:100D700023E333E343E250E40E943A160E947D15D8
:100D80006CBF0895682F70E080E090E00E94AE157F
:100D900024E13EEA43E251E40E943A160E947D15A6
:100DA0007BBD6ABD0895DC0151962C915197222399
:100DB00041F05696ED91FC915797908184E0891B04
:100DC000089580E008950FB6F8940F92FC01828D8B
:100DD000811102C081E001C080E00F900FBE089534
:100DE0000FB6F8940F92FC01228D838D281302C058
:100DF00081E001C080E00F900FBE08950F931F9314
:100E0000CF93DF93EC01042F1A8D4C8D41110CC050
:100E100088819981892B09F042C08C819D810E9433
:100E20000F121D821C8242C0011117C050E08A813E
:100E30009B810E94EF162C8D8A819B81820F911DD0
:100E40009B838A832C813D818217930750F188818F
:100E500099819B838A8380E029C050E08E819F81A5
:100E60000E94EF168C8D90E09195819591092E81CD
:100E70003F81280F391F3F832E83488159812417D2
:100E8000350730F42C813D81820F931F9F838E8321
:100E9000023049F4112349F0115080E007C080E08E
:100EA00005C080E003C080E001C080E01F5F1A8FB2
:100EB000DF91CF911F910F910895FC01448D442340
:100EC000A9F050E026813781240F351F3783268310
:100ED000848195812817390720F08081918197833B
:100EE0008683CB01668177810E94EF1608951F9358
:100EF000CF93DF93EC010FB6F8940F921E8D0BC0C9
:100F00008989882351F0CE0141960E947010811189
:100F10000E947711115011169CF38FEF8E8F0F9056
:100F20000FBE0FB6F8940F921D8D0BC088858823D5
:100F300051F0CE0108960E94701081110E94771125
:100F4000115011169CF38FEF8D8F0F900FBEDF9114
:100F5000CF911F9108950F931F93CF93DF93FC01BF
:100F6000362F892B09F44DC0238D222309F44BC061
:100F7000022F10E08FEF9FEFB8010E94B316448D4F
:100F8000842F90E06817790708F43FC0EF010FB68F
:100F9000F8940F9260817181FB01249FE00DF11D97
:100FA0001124FD83EC831A8E7B836A83015011091F
:100FB000809FA001819F500D909F500D1124CB0167
:100FC000840F951F9F838E838FEF8D8F8E8F3111AE
:100FD0000CC08885882389F0CE0108960E94701085
:100FE000882359F00E94E90508C0CE0108960E94A6
:100FF000A102CE0141960E94A1020F900FBE81E096
:1010000005C080E003C080E001C080E0DF91CF91A7
:101010001F910F9108950F931F93F801611103C061
:101020001183008302C051834083838F648F61E00A
:10103000CF010E94AB071F910F910895DF92EF92AD
:10104000FF920F931F93CF93DF93382FE62F8823C0
:1010500029F1682F70E08FEF9FEF0E94B3168E2F5B
:1010600090E068177907E8F03E9FC0011124813EA7
:101070002FEF9207C8F4D42EDE2FC32F4F960E9475
:1010800065007C01009791F08C012D2DAC01415E33
:101090005F4F6D2F8C2F0E940B0808C0E12CF12CA4
:1010A00005C0E12CF12C02C0E12CF12CC701DF912D
:1010B000CF911F910F91FF90EF90DF900895CF9205
:1010C000DF92EF92FF920F931F93CF93DF9300D0A5
:1010D00000D01F92CDB7DEB78C017B015D834C83BE
:1010E000C22ED12C0FB6F8940F92F801928D838DF9
:1010F000981718F0F2E0CF1219C04C2DB701C801B3
:101100000E94FE06F8019189992349F0C801419691
:101110000E947010882331F00E94E90503C08111FC
:101120000E94E9050F900FBE81E04DC08C819D812A
:10113000892B21F40F900FBE80E045C0D11006C06E
:10114000CE0101960E942D11DD24D3940F900FBE85
:101150000E944B0D0FB6F8940F92F801858D8F3FCA
:1011600009F4158EF801868D8F3F09F4168E0F90C5
:101170000FBEBE016C5F7F4FCE0101960E943811F9
:1011800081111BC0C8010E94F006882381F06C8188
:101190007D81C80108960E941510C8010E9477073A
:1011A0000E94750E81119ECF0E94E9059BCFC80158
:1011B0000E9477070E94750E95CFC8010E9477079D
:1011C0000E94750E80E00F900F900F900F900F907F
:1011D000DF91CF911F910F91FF90EF90DF90CF9013
:1011E0000895CF92DF92EF92FF920F931F93CF93C8
:1011F000DF9300D000D01F92CDB7DEB78C016B011A
:101200005D834C83E12C0FB6F8940F92F801F28CB9
:10121000FF20A9F0B601C8010E945D07FA94F80109
:10122000F28E8085882339F0C80108960E947010DC
:1012300081110E94E9050F900FBE81E053C08C819F
:101240009D81892B21F40F900FBE80E04BC0E110EF
:1012500006C0CE0101960E942D11EE24E3940F905A
:101260000FBE0E944B0D0FB6F8940F92F801858DBA
:101270008F3F09F4158EF801868D8F3F09F4168E85
:101280000F900FBEBE016C5F7F4FCE0101960E9492
:10129000381181111BC0C8010E94E306882381F028
:1012A0006C817D81C80141960E941510C8010E9481
:1012B00077070E94750E8111A6CF0E94E905A3CF82
:1012C000C8010E9477070E94750E9DCFC8010E9439
:1012D00077070E94750EC8010E94E306882309F46F
:1012E00092CF80E00F900F900F900F900F90DF91B2
:1012F000CF911F910F91FF90EF90DF90CF900895C5
:10130000EF92FF920F931F93CF93DF9300D000D003
:101310001F92CDB7DEB78C017D836C83E12CF12C5D
:101320000FB6F8940F92F801828D8823D1F0815086
:10133000828F80819181892B29F40E94E512F80126
:1013400095838483F8018085882339F0C801089645
:101350000E94701081110E94E9050F900FBE81E07C
:1013600074C08C819D81892B21F40F900FBE80E089
:101370006CC0F11006C0CE0101960E942D11FF2411
:10138000F3940F900FBE0E944B0D0FB6F8940F927E
:10139000F801858D8F3F09F4158EF801868D8F3FFA
:1013A00009F4168E0F900FBEBE016C5F7F4FCE0109
:1013B00001960E94381181112AC0C8010E94E306DB
:1013C0008823F9F0F80180819181892B51F40FB6BF
:1013D000F8940F92848195810E947B11E82E0F90E2
:1013E0000FBE6C817D81C80141960E941510C80115
:1013F0000E9477070E94750E811192CF0E94E90525
:101400008FCFC8010E9477070E94750E89CFC8014F
:101410000E9477070E94750EC8010E94E306882388
:1014200009F47ECFEE2081F00FB6F8940F92C80138
:101430000E94D306682FF801848195810E94721260
:101440000F900FBE80E001C080E00F900F900F90D2
:101450000F900F90DF91CF911F910F91FF90EF9020
:101460000895CF93DF93EC010FB6F8940F928D8D12
:101470008F3F09F41D8E8E8D8F3F09F41E8E0F90C5
:101480000FBE8A8D811104C0CE0141960E942710A3
:10149000CE010E947707DF91CF910895FC0122854C
:1014A00033852B5E344059F4FC0184899589F4E03E
:1014B0008E3F9F0731F0892B31F080E0089580E066
:1014C000089580E0089581E00895E0910905F09184
:1014D0000A058081811107C08FEF9FEF9093E00490
:1014E0008093DF040895E0910905F0910A050580D5
:1014F000F681E02D808191819093E0048093DF0458
:101500000895CF93DF93EC018F89988D0E949F00FF
:10151000CE010E949F00DF91CF9108956F927F923C
:101520008F929F92AF92BF92CF92DF92EF920F93E2
:101530001F93CF93DF93CDB7DEB74C01F5018789B9
:10154000908D215031093C01620E731E61157105A9
:1015500089F415C0822F90E0FB01E80FF91F30815C
:10156000D501A80FB91F59963C938081882329F093
:101570002F5F01C020E0283068F3F50110A2F3E0EE
:10158000FE1520F40F2EF3E0EF2EF02DF501E68A84
:10159000E1A2C50102960E94AF02C5010C960E940D
:1015A000AF02F501B186A08684E090E08E19910922
:1015B00095878487B38AA28AA801B401C3010E94D7
:1015C0004E05F50191838083C114D10419F0F60111
:1015D000B182A082DF91CF911F910F91EF90DF90A8
:1015E000CF90BF90AF909F908F907F906F90089515
:1015F000CF93C0E010C08C2F90E09C01220F331FCE
:10160000220F331F220F331F820F931F835E9A4FC7
:101610000E94A102CF5FC43070F384E195E00E9484
:10162000A1028BE095E00E94A1028EEF94E00E945F
:10163000A10285EF94E00E94A1028BEE94E00E944B
:10164000A10284E195E090930A05809309058BE05F
:1016500095E09093080580930705CF910895CF9367
:10166000DF93EC010FB6F8940F928091EA048F5F3C
:101670008093EA048091410590914205892B59F4A9
:10168000D0934205C09341058091EA04813099F4DA
:101690000E94F80A10C08091E60481110CC0E0910C
:1016A0004105F091420596898E89891720F0D093E3
:1016B0004205C09341058091E1048F5F8093E1046E
:1016C0008E899091E704981710F48093E70490E0D6
:1016D000FC01EE0FFF1FEE0FFF1FEE0FFF1F8E0F1F
:1016E0009F1FFC01E35EFA4F0180F281E02DFD8334
:1016F000EC83848195819F838E83A481B581CE0103
:10170000029613969C938E93129795838483EE8909
:10171000F0E0CF01880F991F880F991F880F991F3C
:10172000E80FF91FE35EFA4FFB87EA8780818F5F3E
:1017300080830F900FBE8091E604882351F0E091E2
:101740004105F091420596898E89981710F40E9400
:10175000E905DF91CF910895CF93DF931CC00FB6B9
:10176000F8940F92E091FA04F091FB04C681D781BE
:10177000CE0102960E9405038091EA048150809375
:10178000EA048091F40481508093F4040F900FBE1A
:10179000CE010E94810A8091F4048111E0CFDF9193
:1017A000CF9108950E94AC0B80911D058230D0F33B
:1017B0000E94E905F7CFFF920F931F93CF93DF931A
:1017C000EC01F62E0091E8041091E90480914105A6
:1017D0009091420502960E940503CF3F8FEFD807F4
:1017E000B1F5FF20A1F1EBEEF4E0A181B281C0914F
:1017F0004105D0914205BD83AC83C0914105D09194
:10180000420514968D919C9115979F838E83149613
:10181000CD91DC91159780914105909142050296FA
:101820009B838A838091410590914205029615968B
:101830009C938E931497A0914105B09142051B96FD
:10184000FC93EE931A9780818F5F80832FC0C00F27
:10185000D11FE0914105F0914205D383C283C017A7
:10186000D10768F4609141057091420580910705A8
:10187000909108056E5F7F4F0E94D40217C060915F
:101880004105709142058091090590910A056E5FAE
:101890007F4F0E94D4028091DF049091E004C8172A
:1018A000D90720F4D093E004C093DF04DF91CF91F7
:1018B0001F910F91FF9008952F923F924F925F9248
:1018C0006F927F928F929F92AF92BF92CF92DF9250
:1018D000EF92FF920F931F93CF93DF933C011B0175
:1018E0005A012901CA010E9465006C01892B99F0F7
:1018F00088E290E00E946500EC01892B41F088E2CB
:10190000FE0111928A95E9F7D88ECF8A06C0C601EA
:101910000E949F0002C0C0E0D0E0209791F09501A6
:1019200040E050E0812C912C5E016701E02E8201A5
:10193000B101C3010E948E0ACE010E942F0B81E0EB
:1019400001C08FEFDF91CF911F910F91FF90EF902A
:10195000DF90CF90BF90AF909F908F907F906F90CF
:101960005F904F903F902F9008950F931F93CF93C8
:10197000DF9320914105309142058217930709F4C6
:1019800055C0009709F452C0EC010FB6F8940F92BD
:101990000E944E0A882309F447C08E010E5F1F4F34
:1019A000C8010E9405038E899091E704981710F4EE
:1019B0008093E70490E0FC01EE0FFF1FEE0FFF1F86
:1019C000EE0FFF1F8E0F9F1FFC01E35EFA4F018099
:1019D000F281E02DFD83EC83848195819F838E834A
:1019E000A481B58113961C930E93129715830483DB
:1019F000EE89F0E0CF01880F991F880F991F880F9B
:101A0000991FE80FF91FE35EFA4FFB87EA87808191
:101A10008F5F80839E89E0914105F0914205868920
:101A2000981710F00E94E9050F900FBEDF91CF913B
:101A30001F910F910895EF92FF920F930F2EFDEDDE
:101A4000EF2EF4E0FF2EF02D00E020E030E040E843
:101A500050E06AEC70E082ED9BE00E945C0C81300B
:101A600011F40E94E914813081F4F8948FEF9FEF14
:101A70009093E0048093DF0481E08093E604109269
:101A8000E9041092E8040E94BA05809161000F9168
:101A9000FF90EF9008958091DC048F5F8093DC04C9
:101AA00008950FB6F8940F928091E8049091E9049C
:101AB0000F900FBE08950F931F93CF93DF938091E4
:101AC000DC04811101C1C091E804D091E9048E01C8
:101AD0000F5F1F4F1093E9040093E80401151105EF
:101AE000B9F48091090590910A052091070530917C
:101AF000080530930A052093090590930805809303
:101B000007058091E2048F5F8093E2040E94650ADA
:101B10008091DF049091E0040817190720F480E019
:101B2000B8C081E001C080E0E0910905F0910A05AC
:101B30009081911107C02FEF3FEF3093E004209385
:101B4000DF04A7C0E0910905F0910A050580F68140
:101B5000E02D0680F781E02D2281338102171307E3
:101B600028F43093E0042093DF0493C0A285B3856A
:101B70002481358146815781E9015D834C8326812B
:101B8000378144815581E9015B834A8311962D9108
:101B90003C911297AF014E5F5F4F2417350731F428
:101BA0002681378112963C932E93119713861286C5
:101BB0009C9191509C93A489B589109719F1268521
:101BC000378560897189E9017D836C83208931893A
:101BD00066857785E9017B836A8311966D917C9197
:101BE00012979F01245F3F4F6217730731F42089DA
:101BF000318912963C932E931197158A148A9C91E1
:101C000091509C9326899091E704921710F42093A9
:101C1000E70430E0D901AA0FBB1FAA0FBB1FAA0F10
:101C2000BB1F2A0F3B1FD901A35EBA4F11960D901F
:101C3000BC91A02DB583A48314962D913C9115974A
:101C40003783268314962D913C911597E9015B8388
:101C50004A8315965C934E931497A689B0E09D0134
:101C6000220F331F220F331F220F331FA20FB31F68
:101C7000A35EBA4FB387A2879C919F5F9C932689EE
:101C8000E0914105F09142059689921708F449CFF9
:101C90004BCFE0914105F0914205268930E0F901F2
:101CA000EE0FFF1FEE0FFF1FEE0FFF1F2E0F3F1F48
:101CB000F901E35EFA4F9081923008F081E0909153
:101CC000E30491110CC00CC08091E4049091E504F0
:101CD00001969093E5048093E40480E001C081E0E4
:101CE000DF91CF911F910F910895CF93DF930FB69E
:101CF000F8940F928091DC0481508093DC048091F1
:101D0000DC048111BFC08091EA04811196C0BDC07E
:101D1000E0910305F09104050680F781E02DA48988
:101D2000B589C685D785808991899D838C83C08933
:101D3000D189868597859B838A8311962D913C91C5
:101D40001297CF010C962817390731F480899189B1
:101D500012969C938E931197158A148A8C918150B8
:101D60008C93A285B385C481D581868197819D831B
:101D70008C83C681D781848195819B838A831196C8
:101D80008D919C9112979F012E5F3F4F8217930771
:101D900031F48681978112969C938E9311971386C6
:101DA00012868C9181508C9386899091E7049817C4
:101DB00010F48093E70490E0DC01AA0FBB1FAA0F88
:101DC000BB1FAA0FBB1F8A0F9B1FDC01A35EBA4F6C
:101DD00011960D90BC91A02DB583A48314968D917E
:101DE0009C911597978386831496CD91DC911597D6
:101DF0003B832A8315963C932E931497A689B0E0D3
:101E0000CD01880F991F880F991F880F991FA80F60
:101E1000B91FA35EBA4FB387A2878C918F5F8C9353
:101E20009689A0914105B091420556968C919817DC
:101E300030F081E08093E30402C0E0E0F0E08091C4
:101E4000FE04811165CFEF2B11F00E94650AC0914D
:101E5000E404D091E504209769F00E945B0D88238B
:101E600019F081E08093E3042197B9F71092E5041B
:101E70001092E4048091E304882331F00E94E90584
:101E800081E003C080E001C080E00F900FBEDF91D1
:101E9000CF910895CF93DF93EC01892B49F00E94F5
:101EA0004B0D60E0CE010E94DB0B0E94750E01C05D
:101EB00080E0811102C00E94E905DF91CF91089571
:101EC0008091DC04882321F081E08093E30408956D
:101ED0001092E3042091E70401C02150822F90E08A
:101EE000FC01EE0FFF1FEE0FFF1FEE0FFF1FE80FAD
:101EF000F91FE35EFA4F3081332379F3AC01440FCD
:101F0000551F440F551F440F551F480F591FDF0120
:101F10000180F281E02D0280F381E02D1296FC9386
:101F2000EE931197405E5A4FE417F50729F442816A
:101F30005381FD0152834183FC01EE0FFF1FEE0F21
:101F4000FF1FEE0FFF1F8E0F9F1FFC01E35EFA4F76
:101F50000180F281E02D86819781909342058093E4
:101F600041052093E70408950F931F93CF93DF93C8
:101F7000EC010FB6F8940F92892B21F4C091410522
:101F8000D09142058E010E5F1F4FC8010E940503CC
:101F90008C899D89892B21F0CE010C960E94050326
:101FA000B8018BEE94E00E94B30280E00FC0282FAE
:101FB000082E000C330BFE01E20FF31F97A19130A6
:101FC00021F4FE01E20FF31F17A28F5F18167CF7B2
:101FD0000F900FBE8091E604882339F00FB6F89475
:101FE0000F920E94650A0F900FBE8091410590915B
:101FF0004205C817D907A1F48091E604882319F097
:102000000E94E9050DC09091EB048091EA049813B9
:1020100005C0109242051092410502C00E94600F57
:10202000DF91CF911F910F910895CF93DF93EB0133
:102030006091410570914205645F7F4F0E94D40218
:1020400061E0CE010E94DB0BDF91CF9108950F93E9
:102050001F93CF93DF93FC018B01A181B28180910B
:10206000410590914205EC01BF87AE878091410503
:102070009091420514962D913C911597EC01398B66
:10208000288B14968D919C91159720914105309144
:102090004205245F3F4FEC013B832A832091410599
:1020A00030914205245F3F4F15963C932E93149731
:1020B000A0914105B09142055596FC93EE9354973B
:1020C00090819F5F9083442311F00FEF1FEF642FE7
:1020D000C8010E94DB0BDF91CF911F910F910895F2
:1020E000CF93DF93DC011596ED91FC911697068056
:1020F000F781E02DA489B589C685D7858089918926
:102100009D838C83C089D189868597859B838A83AB
:1021100011968D919C9112979F01245F3F4F8217DA
:10212000930731F48089918912969C938E9311972D
:10213000158A148A8C9181508C938091DC048111D2
:1021400060C0A285B385C481D581868197819D8336
:102150008C83C681D781848195819B838A831196E4
:102160008D919C9112979F012E5F3F4F821793078D
:1021700031F48681978112969C938E9311971386E2
:1021800012868C9181508C9386899091E7049817E0
:1021900010F48093E70490E0DC01AA0FBB1FAA0FA4
:1021A000BB1FAA0FBB1F8A0F9B1FDC01A35EBA4F88
:1021B00011960D90BC91A02DB583A48314968D919A
:1021C0009C911597978386831496CD91DC911597F2
:1021D0003B832A8315963C932E931497A689B0E0EF
:1021E000CD01880F991F880F991F880F991FA80F7D
:1021F000B91FA35EBA4FB387A2878C918F5F8C9370
:102200001CC04EEF54E0DA011196CD91DC9112978B
:10221000D787C6878C819D81918B808B8C819D8196
:10222000DC0113963C932E9312973D832C83558BA0
:10223000448BDA018C918F5F8C939689E0914105F4
:10224000F09142058689891720F481E08093E304A8
:1022500001C080E0DF91CF9108952091E204FC015C
:1022600020832091E8043091E9043283218308958A
:102270001F93CF93DF930FB6F8940F92E091E80489
:10228000F091E904DC0111964D915C911297DF0108
:10229000A41BB50BEB01288139812F3FDFEF3D07F0
:1022A000F9F0EC011881C091E2041C1741F0E41729
:1022B000F50728F0FB011182108281E012C0A217FD
:1022C000B30748F4FB012A1B3B0B318320830E9498
:1022D0002D1180E006C0DB011D921C9281E001C03F
:1022E00080E00F900FBEDF91CF911F91089581E0A4
:1022F0008093E30408950F931F93CF93DF93FC0122
:10230000892B09F484C02689A0914105B09142052A
:1023100056968C91281708F070C08485958599236E
:1023200064F0A0914105B091420556963C9184E03D
:1023300090E0831B9109958784878285938530E09F
:10234000A901440F551F440F551F440F551F240F5B
:10235000351F235E3A4F8217930709F045C0EF01FE
:102360008F010E5F1F4FC8010E940503E0914105D8
:10237000F091420586898E8B9091E704981710F4AE
:102380008093E70490E0FC01EE0FFF1FEE0FFF1FAC
:10239000EE0FFF1F8E0F9F1FFC01E35EFA4F0180BF
:1023A000F281E02DFD83EC83848195819F838E8370
:1023B000A481B58113961C930E9312971583048301
:1023C0008E8990E0FC01EE0FFF1FEE0FFF1FEE0F56
:1023D000FF1FE80FF91FE35EFA4FFB87EA87808152
:1023E0008F5F808381E016C0A0914105B0914205C6
:1023F00056968C91868B81E00DC091A1E0914105AC
:10240000F09142058689981720F080E003C080E0B3
:1024100001C081E0DF91CF911F910F9108950F933B
:102420001F93CF93DF93FC01892B09F451C082A144
:10243000815082A3268991A1291709F44BC08111EB
:102440004BC0EF018F010E5F1F4FC8010E940503B3
:1024500089A18E8B24E030E0281B31093D872C8731
:102460009091E704981710F48093E70490E0FC0142
:10247000EE0FFF1FEE0FFF1FEE0FFF1F8E0F9F1FB0
:10248000FC01E35EFA4F0180F281E02DFD83EC83D5
:10249000848195819F838E83A481B58113961C933B
:1024A0000E93129715830483EE89F0E0CF01880F15
:1024B000991F880F991F880F991FE80FF91FE35E76
:1024C000FA4FFB87EA8780818F5F808381E005C0B8
:1024D00080E003C080E001C080E0DF91CF911F91D8
:1024E0000F9108950F931F93CF93DF93FC01892BD6
:1024F00009F466C091A1961708F4962F868998175B
:1025000009F45EC022A1213009F05AC0968B2485BF
:102510003585332334F024E030E0291B3109358739
:1025200024872285338590E0AC01440F551F440F6A
:10253000551F440F551F840F951F835E9A4F281710
:102540003907F1F5EF018F010E5F1F4FC8010E949F
:1025500005038E899091E704981710F48093E7049F
:1025600090E0FC01EE0FFF1FEE0FFF1FEE0FFF1FAD
:102570008E0F9F1FFC01E35EFA4F0180F281E02D78
:10258000FD83EC83848195819F838E83A481B581B3
:1025900013961C930E931297158304838E8990E0F3
:1025A000FC01EE0FFF1FEE0FFF1FEE0FFF1FE80FE6
:1025B000F91FE35EFA4FFB87EA8780818F5F808394
:1025C000DF91CF911F910F910895809141059091D6
:1025D0004205892B39F0E0914105F091420582A135
:1025E0008F5F82A380914105909142050895DC019F
:1025F000E0914B05F0914C05808191E0811190E0D4
:102600009C93911106C00580F681E02D8081918117
:10261000089580E090E00895FC01738362839187C0
:1026200080874617570790F0421B530B848595858A
:1026300048175907E0F4BF016E5F7F4F809149054D
:1026400090914A050E94D40280E0089542175307F2
:1026500018F46217730768F4BF016E5F7F4F8091B3
:102660004B0590914C050E94D40280E0089581E0D2
:10267000089581E00895EF92FF920F931F93CF93F7
:10268000DF93EC018B017A0108C08C859D85080FD2
:10269000191FE889F989CE0109956C857D85600F40
:1026A000711F9801A701CE010E940C138111EDCF7B
:1026B000DF91CF911F910F91FF90EF900895EF92CE
:1026C000FF920F931F93CF93DF938C017B01E091D7
:1026D0004B05F0914C050580F681E02DC681D78130
:1026E000CE0102960E9405038A8982FF06C0A701D7
:1026F000B801CE010E943B1302C08E7F8A8BE8890D
:10270000F989CE010995DF91CF911F910F91FF902B
:10271000EF90089509C00580F681E02D6FEF7FEFFF
:10272000808191810E945F13E0914B05F0914C05EF
:1027300080818111F0CF8091490590914A05909355
:102740004C0580934B05F0934A05E09349050895A5
:102750000F931F93CF93DF938C010E94510DEC01D7
:102760008091430590914405C817D90730F40E9421
:102770008A1381E0F801808302C0F8011082D093AF
:102780004405C0934305CE01DF91CF911F910F9176
:102790000895CF92DF92EF92FF921F93CF93DF9332
:1027A0001F92CDB7DEB77C01162F0E944B0DCE01D4
:1027B00001960E94A8136C018981811127C0111113
:1027C0000AC0CE14DF0438F00E94750EB601C701AE
:1027D0000E945F131DC0112341F0E0914905F09163
:1027E0004A05808111E0811110E0B7016C197D0963
:1027F000412F80914705909148050E94310A0E941F
:10280000750E811105C00E94E90502C00E94750E77
:102810000F90DF91CF911F91FF90EF90DF90CF90BD
:102820000895EF92FF920F931F93CF93DF9300D001
:1028300000D000D0CDB7DEB77AC0898188230CF4F0
:1028400076C00C811D81D8011A968D919C911B97A1
:10285000892B21F0C80102960E940503CE0106963D
:102860000E94A8137C01E9818E2FEE0F990BAA0B11
:10287000BB0BFC013197E930F10508F058C0E65D6B
:10288000FF4F0C94E916F80182898160828B2A81BE
:102890003B8164857585620F731FA701C8010E9483
:1028A0000C13882309F443C0D80152968C91529797
:1028B00082FF0DC06A817B811C968D919C911D9732
:1028C000680F791FA701C8010E943B1303C08E7FC8
:1028D000F801828BD8015096ED91FC915197C80177
:1028E000099525C0F80182898E7F828B20C0D8018E
:1028F00052968C915297816052968C9352976A812E
:102900007B811D967C936E931C976E0D7F1D9701A6
:10291000A701C8010E940C130AC0F801828981FD39
:1029200004C0C8010E949F0002C08E7F828B40E0DD
:1029300050E0BE016F5F7F4F809147059091480541
:102940000E94F108811179CF26960FB6F894DEBF68
:102950000FBECDBFDF91CF911F910F91FF90EF90F0
:102960000895CF93DF931F92CDB7DEB7CE010196C6
:102970000E94F71269810E94C9130E941114F6CFB8
:102980000FB6F8940F928091470590914805892BD6
:10299000E9F486E595E00E94A1028DE495E00E94AD
:1029A000A10286E595E090934C0580934B058DE45C
:1029B00095E090934A058093490540E065E08AE000
:1029C0000E941E0890934805809347050F900FBE04
:1029D0000895EF92FF920F930E94C01480914705D3
:1029E00090914805892B91F00F2EF5E4EF2EF5E03C
:1029F000FF2EF02D02E020E030E040E850E06FECE8
:102A000070E081EB94E10E945C0C01C080E00F91CA
:102A1000FF90EF9008950E941F150C9400160E94DD
:102A2000F91558F00E94F21540F029F45F3F29F0A3
:102A30000C94E91551110C9434160C94EF150E9466
:102A4000111668F39923B1F3552391F3951B550B98
:102A5000BB27AA2762177307840738F09F5F5F4F71
:102A6000220F331F441FAA1FA9F335D00E2E3AF0B0
:102A7000E0E832D091505040E695001CCAF72BD0C8
:102A8000FE2F29D0660F771F881FBB1F2617370719
:102A90004807AB07B0E809F0BB0B802DBF01FF274B
:102AA00093585F4F3AF09E3F510578F00C94E9152A
:102AB0000C9434165F3FE4F3983ED4F386957795F3
:102AC0006795B795F7959F5FC9F7880F911D969504
:102AD000879597F90895E1E0660F771F881FBB1F60
:102AE000621773078407BA0720F0621B730B840B0D
:102AF000BA0BEE1F88F7E09508950E94191688F02A
:102B00009F5798F0B92F9927B751B0F0E1F0660FB1
:102B1000771F881F991F1AF0BA95C9F714C0B130F2
:102B200091F00E943316B1E008950C943316672F8C
:102B3000782F8827B85F39F0B93FCCF38695779521
:102B40006795B395D9F73EF490958095709561950A
:102B50007F4F8F4F9F4F0895E89409C097FB3EF435
:102B600090958095709561957F4F8F4F9F4F9923DA
:102B7000A9F0F92F96E9BB279395F6958795779558
:102B80006795B795F111F8CFFAF4BB0F11F460FF18
:102B90001BC06F5F7F4F8F4F9F4F16C0882311F070
:102BA00096E911C0772321F09EE8872F762F05C084
:102BB000662371F096E8862F70E060E02AF09A951F
:102BC000660F771F881FDAF7880F9695879597F914
:102BD000089597F99F6780E870E060E008959FEF9F
:102BE00080EC089500240A941616170618060906A4
:102BF000089500240A941216130614060506089573
:102C0000092E0394000C11F4882352F0BB0F40F4FA
:102C1000BF2B11F460FF04C06F5F7F4F8F4F9F4F3A
:102C2000089557FD9058440F551F59F05F3F71F0BC
:102C30004795880F97FB991F61F09F3F79F0879523
:102C40000895121613061406551FF2CF4695F1DFAC
:102C500008C0161617061806991FF1CF869571053C
:102C6000610508940895E894BB2766277727CB0170
:102C700097F908950E944D160C9400160E94F215C3
:102C800038F00E94F91520F0952311F00C94E91505
:102C90000C94EF1511240C9434160E94111670F345
:102CA000959FC1F3950F50E0551F629FF001729FF1
:102CB000BB27F00DB11D639FAA27F00DB11DAA1F00
:102CC000649F6627B00DA11D661F829F2227B00D4D
:102CD000A11D621F739FB00DA11D621F839FA00DD8
:102CE000611D221F749F3327A00D611D231F849F28
:102CF000600D211D822F762F6A2F11249F5750407F
:102D00009AF0F1F088234AF0EE0FFF1FBB1F661FF9
:102D1000771F881F91505040A9F79E3F510580F0C2
:102D20000C94E9150C9434165F3FE4F3983ED4F309
:102D3000869577956795B795F795E7959F5FC1F766
:102D4000FE2B880F911D9695879597F90895991BED
:102D500079E004C0991F961708F0961B881F7A9592
:102D6000C9F780950895AA1BBB1B51E107C0AA1F94
:102D7000BB1FA617B70710F0A61BB70B881F991F1C
:102D80005A95A9F780959095BC01CD010895A1E2CF
:102D90001A2EAA1BBB1BFD010DC0AA1FBB1FEE1FD5
:102DA000FF1FA217B307E407F50720F0A21BB30B20
:102DB000E40BF50B661F771F881F991F1A9469F79C
:102DC00060957095809590959B01AC01BD01CF01F8
:102DD0000895EE0FFF1F0590F491E02D0994FB017B
:102DE000DC0102C001900D9241505040D8F7089587
:042DF000F894FFCF85
:102DF40001033738392F3435362A3132332D4130F7
:102E04003D2B204D6F6465204120416374697665D4
:102E1400004D002054656D70203D2000204D6F64EE
:102E24006520422041637469766500202020647522
:102E34007479203D2000204D6F6465204320416358
:102E440074697665006D6F64655F41006D6F6465DC
:102E54005F42006D6F64655F430049444C45005414
:082E64006D722053766300003B
:00000001FF
